{
  "contractName": "SmartBankAccount",
  "abi": [
    {
      "inputs": [],
      "payable": false,
      "stateMutability": "nonpayable",
      "type": "constructor",
      "signature": "constructor"
    },
    {
      "anonymous": false,
      "inputs": [
        {
          "indexed": false,
          "name": "sender",
          "type": "address"
        },
        {
          "indexed": false,
          "name": "balance",
          "type": "uint256"
        }
      ],
      "name": "GetBalance",
      "type": "event",
      "signature": "0x2ee5108edf1b0cacb02ca5dd70ace75f5f6acba366cfe64a64b126815c5473a9"
    },
    {
      "anonymous": false,
      "inputs": [
        {
          "indexed": false,
          "name": "sender",
          "type": "address"
        },
        {
          "indexed": false,
          "name": "totalContractBalance",
          "type": "uint256"
        }
      ],
      "name": "Deposit",
      "type": "event",
      "signature": "0xe1fffcc4923d04b559f4d29a8bfc6cda04eb5b0d3c460751c2402c5c5cc9109c"
    },
    {
      "constant": true,
      "inputs": [],
      "name": "testContract",
      "outputs": [
        {
          "name": "",
          "type": "uint256"
        }
      ],
      "payable": false,
      "stateMutability": "view",
      "type": "function",
      "signature": "0xc36631b4"
    },
    {
      "constant": false,
      "inputs": [],
      "name": "deposit",
      "outputs": [],
      "payable": true,
      "stateMutability": "payable",
      "type": "function",
      "signature": "0xd0e30db0"
    },
    {
      "constant": true,
      "inputs": [],
      "name": "getBalance",
      "outputs": [
        {
          "name": "",
          "type": "uint256"
        }
      ],
      "payable": false,
      "stateMutability": "view",
      "type": "function",
      "signature": "0x12065fe0"
    }
  ],
  "bytecode": "0x6080604052607b60005534801561001557600080fd5b50610183806100256000396000f3fe608060405260043610610057576000357c0100000000000000000000000000000000000000000000000000000000900463ffffffff16806312065fe01461005c578063c36631b414610087578063d0e30db0146100b2575b600080fd5b34801561006857600080fd5b506100716100bc565b6040518082815260200191505060405180910390f35b34801561009357600080fd5b5061009c610108565b6040518082815260200191505060405180910390f35b6100ba610111565b005b600080600160003373ffffffffffffffffffffffffffffffffffffffff1673ffffffffffffffffffffffffffffffffffffffff1681526020019081526020016000205490508091505090565b60008054905090565b34600160003373ffffffffffffffffffffffffffffffffffffffff1673ffffffffffffffffffffffffffffffffffffffff1681526020019081526020016000208190555056fea165627a7a723058201e0895d071160e475ecf999902e768702c740438e661cf5ec6c21b6f536a61550029",
  "source": "pragma solidity >=0.4.22 <0.9.0;\r\n\r\ncontract SmartBankAccount {\r\n    uint test = 123;\r\n    mapping(address => uint) balances;\r\n    \r\n    constructor() public {}\r\n\r\n    event GetBalance(\r\n        address sender,\r\n        uint balance\r\n    );\r\n\r\n    event Deposit(\r\n        address sender,\r\n        uint totalContractBalance\r\n    );\r\n\r\n    function testContract() public view returns (uint) {\r\n        return test;\r\n    }\r\n\r\n    function deposit() public payable {\r\n        balances[msg.sender] = msg.value;\r\n        // emit Deposit(msg.sender, totalContractBalance);\r\n    }\r\n\r\n    function getBalance() public view returns (uint256) {\r\n        uint balance = balances[msg.sender];\r\n        // emit GetBalance(userAdress, balance);\r\n        return balance;\r\n    }\r\n\r\n    // function withdraw() public payable {\r\n    //     address payable withdrawTo = payable(msg.sender);\r\n    //     uint256 amountToTrasfer = getBalance(msg.sender);\r\n    //     uint balance = balances[msg.sender];\r\n    //     withdrawTo.transfer(amountToTrasfer);\r\n    //     balance -= amountToTrasfer;\r\n    //     balances[msg.sender] = 0;\r\n    // }\r\n}\r\n",
  "sourcePath": "D:/Workspace/dApps/mobile-banking-app/contracts/SmartBankAccount.sol",
  "compiler": {
    "name": "solc",
    "version": "0.5.0+commit.1d4f565a.Emscripten.clang"
  },
  "schemaVersion": "3.0.2",
  "updatedAt": "2021-10-21T03:40:22.805Z",
  "devdoc": {
    "methods": {}
  },
  "userdoc": {
    "methods": {}
  }
}